:020000040000FA
:1000000000020010E5000000ED000000EF0000001D
:10001000F1000000F3000000F50000000000000007
:10002000000000000000000000000000F7000000D9
:10003000F900000000000000FB000000FD000000CF
:10004000FF000000FF000000FF000000FF000000B4
:10005000FF000000FF000000FF000000FF000000A4
:10006000FF000000FF000000FF000000FF00000094
:10007000FF000000FF000000FF000000FF00000084
:10008000FF000000FF000000FF000000FF00000074
:10009000FF000000FF000000FF000000FF00000064
:1000A000FF0000007F660000FF000000FF0000006E
:1000B000FF000000FF000000FF000000FF00000044
:1000C000FF000000FF000000FF000000DFF810D07C
:1000D00000F0F2F800480047BD670000AFF3008071
:1000E000000200100648804706480047FEE7FEE78A
:1000F000FEE7FEE7FEE7FEE7FEE7FEE7FEE7FEE7D8
:100100002D040000CD00000010B50A46202801D2C1
:10011000034601E0A0F120031946202810D2454BE8
:100120001B6803248C40A343434CC4F8A831414BC3
:100130001B6802FA01F423433F4CC4F8A83111E0D4
:100140003C4B1B1D1B6803248C40A3433A4CC4F852
:10015000AC31384B1B1D1B6802FA01F42343364CAB
:10016000C4F8AC3110BD0146202903D20A46314BF8
:10017000186804E0A1F120022E4B1B1D186820FA1C
:1001800002F303F00300704770B506462B4804687D
:100190003046FFF7E8FF054635B1012D06D0022DA8
:1001A00006D0032D08D105E0042505E0012503E074
:1001B000022501E0082500BF00BFB4FBF5F420468E
:1001C00070BD012909D11C4AC43212681C4B03407E
:1001D0001A43194BC3F8C42009E041B9164AC43286
:1001E0001268174B83431A40134BC3F8C42070475F
:1001F00000201149C031086030BF70470420114908
:10020000086008200C49C031086030BF70470420E6
:100210000C49086009200849C031086030BF7047A8
:1002200004200849086003200349C031086030BF3A
:1002300070470000A8C10F4000C00F4000C0072059
:10024000DEF7EFEF10ED00E070B505460C46A4F1C7
:100250002000044A02EB00111022284600F004F8A6
:1002600070BD0000E66A000040EA01039B0703D06E
:1002700009E008C9121F08C0042AFAD203E011F8E5
:10028000013B00F8013B521EF9D2704730B50B46D6
:10029000014600202022012409E021FA02F59D42B6
:1002A00005D303FA02F5491B04FA02F52844151E8A
:1002B000A2F10102F1DC30BD064C074D06E0E0681A
:1002C00040F0010394E8070098471034AC42F6D39D
:1002D000FFF700FFD87000000871000002E008C8B6
:1002E000121F08C1002AFAD170477047002001E0B0
:1002F00001C1121F002AFBD170470000FFFFFFFF62
:1003000097480068C0F3016003285DD194488430A9
:10031000006800F0030030B1012820D0022839D055
:10032000032850D100E000BF8D480068C0F30E00E4
:10033000401C40008B49484389498839D1F88810CE
:10034000C1F30741491CB0FBF1F185487C300068DE
:10035000C0B2401CB1FBF0F08349086033E0804834
:100360000068C0F30E00401C4000804948437C49AF
:100370008839D1F88810C1F30741491CB0FBF1F16D
:1003800077487C300068C0B2401CB1FBF0F0764981
:10039000086018E072480068C0F30E00401C0104B9
:1003A0006F488838D0F88800C0F30740401CB1FB84
:1003B000F0F16B487C300068C0B2401CB1FBF0F03B
:1003C0006949086000BF30E065488430006800F08B
:1003D000030030B1012810D0022819D0032823D1FE
:1003E00000E000BF5E487C300068C0B2401C5D4940
:1003F000B1FBF0F05C49086016E059487C300068B9
:10040000C0B2401C5949B1FBF0F0574908600BE0FD
:1004100053487C300068C0B2401C4FF40041B1FB2F
:10042000F0F05149086000BF00BF704720205049DC
:1004300008604B488838D0F8A00100F0200030B1A7
:1004400000BF4B48006800F040000028F9D00320AE
:1004500043497C310860002041498839C1F8A8012E
:1004600043490C31086001203D498431086041480E
:100470003B49091F0860AA203949091D0860552019
:1004800008600120364908390860AA203449091D4E
:100490000860552032498839C1F88C0000BF3048C7
:1004A000006800F080600028F9D003202C4908394A
:1004B0000860AA202A498839C1F88C0055202849AB
:1004C000091D086000BF2648006800F04070002841
:1004D000F9D0232022491C310860AA2020498839FC
:1004E000C1F8AC0055201E492431086001201C4988
:1004F00018310860AA201A4924310860552018498B
:100500008839C1F8AC0000BF15482030006800F4FD
:1005100080600028F8D00320114918310860AA2013
:100520000F498839C1F8AC0055200D4924310860C5
:1005300000BF0B482030006800F440700028F8D05D
:100540000D4807493C310860002005498839C1F849
:10055000C80143F23A00086000200849086070476B
:1005600088C00F4000093D0000C00720001BB700F5
:10057000A0C10F4063000500DE87280408ED00E0FD
:100580002DE9F84F05460E46002700200090FE4852
:10059000854202D0FD48854200D103E05521FCA0F0
:1005A00006F013F9F848854204D11A20FFF7ECFD54
:1005B000009003E01C20FFF7E7FD00900098B0FBDF
:1005C000F6F74FF0010A18241CE0B7FBF4F004FB27
:1005D0001070A8B9B7FBF4F0A0F1010B601EC4B213
:1005E000032094FBF0F0401E00F0FF09032094FB71
:1005F000F0F0201A401E00F0FF084FF0000A03E060
:10060000A01EC4B2002CE0DC00BFBAF1000F01D084
:1006100000BFFEE7012028604FEA095040EA084089
:1006200040F4404040EA0B00686100202860BDE8CB
:10063000F88F2DE9F04104460E46D348844202D09B
:10064000D248844200D103E09221D1A006F0BDF847
:10065000CD48844204D101214803FFF7B2FD03E0F5
:1006600001218803FFF7ADFD02211A20FFF74CFDA1
:1006700002211C20FFF748FD02211E20FFF744FD48
:100680000120206000202061A0600E206060E768EB
:10069000002020600120C9490860002505E00020F5
:1006A000C74A42F82500681C85B2B5F5007FF6DB25
:1006B0000020C24948608860C860086148610860DD
:1006C00031462046FFF75CFFBDE8F08110B50446D7
:1006D000AD48844202D0AD48844200D103E0CA2133
:1006E000ABA006F072F8A848844205D100214FF46F
:1006F0000050FFF766FD04E000214FF48040FFF753
:1007000060FD10BD2DE9F34F89B00C460025AB49C3
:100710000998884200D103E0EC219DA006F055F82D
:10072000012109980160206818B90020A5490870C6
:10073000B0E00120A34908704FF00009A6E0681C52
:10074000402803DD02200BB0BDE8F08F206806785A
:100750002068B0F80280206847780EB9012000E0D8
:100760000020012E01D1012100E00021084300B149
:1007700004E040F2011186A006F027F84FEAE820D5
:1007800000B904E04FF4817181A006F01EF80FB9A2
:10079000012000E00020012F01D1012100E0002113
:1007A000084300B104E040F2031179A006F00DF80F
:1007B0004FF0000B8448007800F0010088BB85B141
:1007C000681E7F4951F8200005904EF2FF71059890
:1007D0000840079048EA46310798814201DA05202F
:1007E000B1E7700740EA077040EA084040F0006B4C
:1007F000734951F8250080B20A4642F8250051F8A5
:10080000250040EA0B0042F825006F480088401C94
:100810006D49088020790988884230D1681C85B2EA
:100820002DE0FFE7664951F8250005904EF2FF7173
:10083000059801EA1040079048EA4631079881423E
:1008400001DA05207FE7700340EA073040EA08003C
:1008500040F4006B5A4951F825006FF30F000A4627
:1008600042F8250051F8250040EA0B0042F8250027
:10087000681C85B254480088401C53490880206891
:10088000001D206009F101001FFA80F92079484518
:100890003FF755AFA068002873D04FF00009C9E0BA
:1008A000681CB0F5007F01DD02204CE7A0680678E7
:1008B000A068B0F80280A06847780EB9012000E077
:1008C0000020012E01D1012100E00021084300B1E8
:1008D00004E040F237112EA005F077FF4FEAE82040
:1008E00000B904E04FF49C7129A005F06EFF0FB928
:1008F000012000E00020012F01D1012100E00021B2
:10090000084300B104E040F2391121A005F05DFF79
:100910004FF0000B2D48007800F0010090BB2B48F1
:10092000008880B1681E264951F8200005904EF2DB
:10093000FF7105980840079048EA463107988142C0
:1009400001DA0520FFE6700740EA077040EA084B2D
:100950001B4951F8250080B20A4642F8250051F89B
:10096000250040EA0B0042F8250018480088401C8A
:1009700016490880207B0988884254D1681C85B2BA
:1009800051E05BE024E000000040044000800440AF
:100990002E2E5C2E2E5C2E2E5C2E2E5C44726976E2
:1009A0006572735C736F757263655C6C706331370D
:1009B00078785F63616E2E630000000000C0034022
:1009C0000080034004C0072006C0072008C007209D
:1009D000FE4951F8250005904EF2FF71059801EA95
:1009E0001040079048EA46310798814201DA052015
:1009F000A9E6700340EA073040EA080BF34951F8D2
:100A000025006FF30F000A4642F8250051F8250033
:100A100040EA0B0042F82500681C85B2EC480088CB
:100A2000401CEB490880A068001DA06009F101008E
:100A30001FFA80F9207B48453FF732AF2069002834
:100A400072D04FF00009B2E0681CB0F5007F01DD04
:100A5000022078E620690678206990F804A02069D1
:100A6000477820694079089020694088049020697F
:100A7000C08803900EB9012000E00020012E01D1B2
:100A8000012100E00021084300B105E040F27111AE
:100A9000AFF2041005F099FEBAF1000F01D1012068
:100AA00000E00020BAF1010F01D1012100E0002196
:100AB000084300B105E04FF4B971AFF22C1005F016
:100AC00084FE0FB9012000E00020012F01D1012197
:100AD00000E00021084300B105E040F27311AFF2DD
:100AE000501005F072FE089808B9012000E00020BF
:100AF0000899012900D100E00021084300B105E078
:100B00004FF4BA71AFF2781005F05FFE0498C0128E
:100B100000B905E040F27511AFF28C1005F055FEFA
:100B20000398C01208B906E045E04FF4BB71AFF27C
:100B3000A01005F04AFE4FF0000BA6480088B8B19F
:100B4000681EA24951F8200005904EF2FF710598E9
:100B500008400790564509D1DDE90310884205DCBD
:100B6000049840EA46310798814201DA0520EAE517
:100B7000700740EA0771049841EA004040EA4A31B0
:100B8000089841EA0030039940EA010B8F4941F887
:100B900025B090480088401C8E490880681C85B2AA
:100BA00020690830206109F101001FFA80F9207DD9
:100BB00048453FF749AFA069C8B34FF0000948E086
:100BC000681CB0F5007F01DD0220BCE5A06940682B
:100BD0000690A06906780698400F00B905E04FF42A
:100BE000CC71AFF2542005F0F0FD0EB9012000E009
:100BF0000020012E01D1012100E00021084300B1B5
:100C000005E040F29911AFF2782005F0DEFD06987C
:100C100040EA467B7048008850B1681E6B4951F825
:100C2000200005900598584502D905208BE513E072
:100C3000664941F825B068480088401C664908802C
:100C4000681C85B2A0690830A06109F101001FFA93
:100C500080F9207F4845B3DC206A00287ED04FF021
:100C6000000983E0A81CB0F5007F01DD02206AE5E1
:100C7000206A0678206A90F801A0206A40680290F5
:100C8000206A806801900EB9012000E00020012E4A
:100C900001D1012100E00021084300B105E040F24C
:100CA000BB11AFF2143005F090FDBAF1000F01D185
:100CB000012000E00020BAF1010F01D1012100E084
:100CC0000021084300B105E04FF4DE71AFF240307F
:100CD00005F07BFD0298400F00B905E040F2BD1120
:100CE000AFF2543005F071FD0198400F00B905E0F6
:100CF0004FF4DF71AFF2683005F067FD4FF0000B85
:100D00003648008890B1681E304951F8200005909F
:100D1000564509D1DDE90110884205D8029840EA1C
:100D200046710598814201D205200CE5029840EAFF
:100D3000467B2846691C8DB2244941F820B00198B1
:100D400040EA4A7B2846691C8DB2204941F820B010
:100D500022480088401C2149088000E00BE0206AFE
:100D60000C30206209F101001FFA80F994F8240088
:100D700048453FF777AF1A480088401C4010800074
:100D8000184948600846416811480088401C4010D6
:100D900001EB800013498860084680680D49098886
:100DA00000EB81000F49C8600846C0680A490988FD
:100DB00000EB81000B490861084600690749098872
:100DC00000EBC1000749486107480FE0008003407D
:100DD00008C007200AC007200CC007200EC007204B
:100DE00006C0072000C0034004C00720007810B9E7
:100DF0000020086002E00420FB4908600120A2E412
:100E00002DE9FC5F80460D469346002001900027A7
:100E100081460024002682460090F448804502D096
:100E2000F348804500D105E04FF4FC71AFF2A040DB
:100E300005F0CBFCBBF1000F02D0BBF1010F00D1DC
:100E400005E040F2F911AFF2B84005F0BEFCE7480A
:100E5000804502D10020019004E0E548804501D1A1
:100E600001200190E348008800EB4001E148008840
:100E7000401C01EB6001E0480088401C01EB600071
:100E8000DE4909880844DE4909880844DD490988A3
:100E900000EB410000B200900098B0F5007F02DB4B
:100EA0000220BDE8FC9F0120CF490860BBF1000F84
:100EB00074D1C5F30A05019845EA4035CE4800785B
:100EC00000F0010000BBCB480088401C4110CA481C
:100ED0000088401C01EB600004B20098001B0FFA70
:100EE00080FAC94951F8247007E0601C04B2C64971
:100EF00051F8249041F824704F46BAF10000AAF14D
:100F000001010FFA81FAF0D1BB48008860B9B948F5
:100F10000088401C401006B24FF6FF7040EA0540C2
:100F2000B94A42F82600ABE0B3480088012821D135
:100F3000B0480088401C401006B2B34951F8260062
:100F40004EF2FF7101EA1040A84209D9AE4951F8AA
:100F50002600000C40EA05400A4642F826008FE0D1
:100F6000A94951F826006FF30F0028430A4642F8BA
:100F7000260085E09F480088401C401004B29E482F
:100F8000008806B29B480088401C41109A4800889F
:100F9000401C01EB60000FFA80FA1BE087E09A49E1
:100FA00051F824004EF2FF7101EA1040A84202D924
:100FB000600006B210E0944951F824004EF2FF712F
:100FC0000840A84204D9012000EB440006B203E027
:100FD000601C04B25445E2DB00BF544516D186487C
:100FE000007800F0010038B94FF6FF7040EA054084
:100FF000854A42F8240043E0834951F824006FF306
:101000000F0028430A4642F8240039E07E4951F88F
:10101000247006F0010018B9280440EA174903E0DB
:10102000380C000440EA0509774941F824907148DA
:101030000088401C411070480088401C01EB600093
:10104000401E0FFA80FA0CE0601C04B26E4951F8A1
:1010500024904FEA194040EA07400A4642F824002B
:101060004F465445F0DB6448007800F0010038B981
:101070004FF6FF7000EB0741601C634A42F82010F6
:101080005D480088401C5C49088057488068001D06
:10109000554988600846C068001DC8600846006958
:1010A000001D086108464069001D486142E0019842
:1010B00045EA4075514801884F480088401C01EBC3
:1010C00060014C480088401C01EB600004B200261F
:1010D00009E04D4951F82400A84200D907E0601CFE
:1010E00004B2701C06B2464800888642F1DB00BF9D
:1010F000454951F8247041F8245041480088401C6B
:101100003F490880DDF800A009E0601C04B2701CB3
:1011100006B23D4951F8249041F824704F46564597
:10112000F3DB31480069001D2F490861084640691A
:10113000001D48612F48008818B900202A4908601E
:1011400002E00420284908600120AAE62DE9F04FBA
:1011500087B006460D460020069000278046059081
:1011600004900390029000248346814682461F48E3
:10117000864202D01E48864200D105E040F2CA21D4
:10118000AFF2F47005F021FB1848864202D100202E
:10119000069004E01648864201D1012006901548C9
:1011A000008800EB400113480088401C01EB6001FF
:1011B00011480088401C01EB600010490988084470
:1011C0000F49098808440F49098800EB41000FFACC
:1011D00080FABAF5FE7F03DA06480088402815DB5E
:1011E000022007B0BDE8F08F00C00340004004407B
:1011F0000080044006C0072008C007200AC007205E
:101200000CC007200EC00720008003400120F849D1
:101210000860C5F30A05C914069841EA403028431E
:1012200085B2F448007800F00100C8B9BAF1000FA7
:1012300016D0F04800884410D146EF4951F8247088
:1012400007E0601C04B2EC4951F8248041F8247096
:101250004746B9F10000A9F101010FFA81F9F0D177
:10126000E448008830B94FF6FF7040EA0540E24993
:101270000860A8E0DF480088012817D1DE48006830
:101280004EF2FF7101EA1040A84207D9DA4800681F
:10129000000C40EA0540D849086094E0D648006850
:1012A0006FF30F002843D44908608CE00024D14834
:1012B00000880FFA80FBCF480088401E40100FFACC
:1012C00080F92FE0CC4951F824004EF2FF7101EA79
:1012D00010400190C84951F824004EF2FF7101EA14
:1012E00010414EF2FF702840814203D960000FFA8E
:1012F00080FB19E0C04951F824004EF2FF7108400C
:101300000190BD4951F824004EF2FF710840294078
:10131000884205D9012000EB44000FFA80FB03E06E
:10132000601C04B24C45CDDD00BF4C4516DDB14814
:10133000007800F0010038B94FF6FF7040EA054030
:10134000AD4A42F824003EE0AB4951F824006FF367
:101350000F0028430A4642F8240034E0A64951F819
:1013600024700BF0010018B9280440EA174803E084
:10137000380C000440EA05089F4941F824809D4844
:1013800000884FEA60090CE0601C04B29A4951F8E9
:1013900024804FEA184040EA07400A4642F82400F9
:1013A00047464C45F0DB9348007800F0010050B907
:1013B000914951F824006FF30F004FF6FF71084474
:1013C0008D4A42F824008B480088A0EB0B000FFAEE
:1013D00080F98848008800EB4000AAEB00000BEB86
:1013E0004B010844401C04B2834951F82470601C2E
:1013F00051F82080A01C51F8200005900021A01C6D
:101400007D4A42F82010601C42F8201042F8241057
:10141000E01C04B21CE0784951F824000490601CE0
:1014200051F820000390A01C51F82000029041F8D0
:101430002470601C41F82080A11C6F4A059842F876
:101440002100049FDDF80C8002980590E01C04B296
:10145000B9F10000A9F101010FFA81F9DBD165486A
:101460000088401C6349088061484068001D60494D
:10147000486008468068001D88600846C068001DF6
:10148000C86008460069001D086108464069001DE3
:101490004861042008600120A3E62DE9FF4F85B0D4
:1014A0000F4690464FF0000B54490598884203D0F0
:1014B00053490598884200D105E040F28731AFF6E4
:1014C000303005F082F9089810B10898012800D151
:1014D00005E04FF46271AFF6483005F076F9474504
:1014E00003D9062009B0BDE8F08F44490598884229
:1014F00002D14FF0000B01E04FF0010B3D48008896
:1015000000EB40013B480088401C01EB60013D4876
:101510000088401C01EB60003B49098808443B49B6
:10152000098808443A49098800EB410000B201905B
:1015300001202F4908600898002858D10198B0F57B
:10154000007F01DB0220CDE7C7F30A07C8F30A08D2
:101550004FEA4B7040EA074040EA4B3040EA08054A
:1015600024480088401C411026480088401C01EB9C
:10157000600004B22448008818B91F4941F824507B
:1015800067E01C480088401C41101E480088401C31
:1015900001EB60001C490988084406B23CE001E008
:1015A000601C04B2144951F82400400FB0EB557F81
:1015B000F6D351F8249051F82400400FB0EB557F3A
:1015C00002D941F8245029E0C9F30A400390C9F335
:1015D0000A0002900398804503D8074941F8245037
:1015E0001CE00298874215D3601C04B214E043E06B
:1015F00000C0034006C007200080034000400440B4
:101600000080044008C007200AC007200CC0072043
:101610000EC00720062065E7B442C0DB00BFB4421D
:1016200004DBFE4951F8249041F824500198001B36
:1016300006B209E0601C04B2F84951F82400049095
:1016400041F82490DDF81090301EA6F101010EB291
:10165000F0D1F3480088401CF1490880F148C06887
:10166000001DF049C86008460069001D0861084671
:101670004069001D4861AEE00198B0F5FF7F01DDD3
:1016800002202FE727F0604728F0604847EA4B75B3
:1016900048EA4B7AE4480088401C4110E34800883F
:1016A000401C01EB6000DE4909880844E0490988D4
:1016B000084404B2DF48008830B9D84941F82450C2
:1016C000601C41F820A07CE0D7480088401C4110F5
:1016D000D6480088401C01EB6000D14909880844C5
:1016E000D34909880844D349098800EB410006B270
:1016F00037E001E0601C04B2C84951F82400BBEB9C
:10170000507FF7D851F82490601C51F820000490C5
:1017100051F82400400FB0EB557F07D941F8245011
:10172000601C00B2044641F820A01CE029F0604093
:101730000390049820F0604002900398804508D8F8
:10174000B64941F82450601C00B2044641F820A07C
:1017500009E00298874202D3A01C04B201E00620EF
:10176000C0E6B442C5DB00BFB4420DDBAB4951F863
:101770002490601C51F82000049041F82450601C13
:1017800000B2044641F820A00198001B401C06B29C
:10179000601C04B213E0A14951F82450601C51F8B8
:1017A00020A041F82490611C9C4A049842F8210032
:1017B000A946CDF810A0A01C04B2B01E06B2002E9F
:1017C000E9DC9C480088401C9A490880954840699B
:1017D000083094494861042092490860012081E65C
:1017E0002DE9F04780460D46B8F1000F0BD0B8F157
:1017F000010F08D0B8F1020F05D0B8F1030F02D0E5
:10180000B8F1040F00D105E04FF48A61AFF68060B3
:1018100004F0DBFF002D03DBB5F5007F00DA05E007
:1018200040F25141AFF6986004F0CFFF01207D49AE
:1018300008607D480088401C41107C480088401C9E
:1018400001EB600076490988084479490988084411
:101850007849098800EB41001FFA80FAB8F1000FBF
:101860007ED17148008818B16F480088854202DB3C
:101870000720BDE8F0876C10684951F824906A4849
:101880000088401B401EC0F34F0605F0010098B9C8
:101890000CE0601C614951F82070380C40EA0940A6
:1018A0000A4642F82400B946601C84B2301EA6F1F4
:1018B00001018EB2EDD11CE016E0601C574951F8D1
:1018C00020704FEA19404FEA004040EA17400A46AC
:1018D00042F82400601C51F820000104601C42F80A
:1018E00020104FEA074984B2301EA6F101018EB2E2
:1018F000E3D14D48007800F0010090B905F00100F7
:1019000038B94FF6FF7000EB0940444A42F8240012
:1019100039E04FF6FF7049EA0000404A42F82400DF
:1019200031E041480088401C44103F48008800EBEB
:101930004000504486B208E0384951F82410601E37
:10194000364A42F82010601C84B2A642F4DC002122
:10195000601E324A42F8201032484068001F00E002
:101960003DE03049486008468068001F88600846AE
:10197000C068001FC86008460069001F086108466B
:101980004069001F486128480088401E2649088099
:1019900005EB4500504484B208460088401B401CBB
:1019A00000EB400086B217E0E01C1C4951F8200013
:1019B0000A4642F82400201D51F82010601C42F80D
:1019C0002010601D114651F82010A01C42F8201074
:1019D000F01E86B2E01C84B2002EE5D164E1B8F1BD
:1019E000010F73D11148008818B110480088854252
:1019F00001DB07203DE70C480088401C401000EB4D
:101A0000650084B2054951F8249008480088401BBD
:101A1000401EC0F34F0605F001000DE000800340BA
:101A20000AC0072000C0034006C0072008C00720E6
:101A30000CC007200EC0072098B90CE0601CFD49BF
:101A400051F82070380C40EA09400A4642F8240058
:101A5000B946601C84B2301EA6F101018EB2EDD1F0
:101A60001CE016E0601CF34951F820704FEA194061
:101A70004FEA004040EA17400A4642F82400601C42
:101A800051F820000104601C42F820104FEA074979
:101A900084B2301EA6F101018EB2E3D1E64800788F
:101AA00000F0010098B905F0010038B94FF6FF7059
:101AB00000EB0940DF4A42F824003AE04FF6FF709D
:101AC00049EA0000DB4A42F8240032E037E0DB4814
:101AD0000088401C4110D8480088401C01EB600081
:101AE00084B2D648008800EB4000504486B208E03B
:101AF000D04951F82410601ECE4A42F82010601CD4
:101B000084B2A642F4DC0021601ECA4A42F82010CA
:101B1000CB488068001FCA4988600846C068001F1B
:101B2000C86008460069001F086108464069001F38
:101B30004861C1480088401EBF490880B4E0B8F140
:101B4000020F3ED1BF48008818B1BE4800888542C8
:101B500001DB07208DE6B9480088401C4110B648DB
:101B60000088401C01EB60002844401C84B2B3484C
:101B7000008800EB4000504486B208E0AD4951F8BF
:101B80002410601EAB4A42F82010601C84B2B4429C
:101B9000F4DB0021601EA74A42F82010A948008803
:101BA000401EA8490880A648C068001FA449C86014
:101BB00008460069001F086108464069001F486127
:101BC00072E0B8F1030F3DD19F48008818B19E48DC
:101BD0000088854201DB07204BE698480088401CBE
:101BE000411095480088401C01EB60009549098828
:101BF00008442844401C84B29048008800EB400010
:101C0000504486B208E08B4951F82410601E894A7E
:101C100042F82010601C84B2B442F4DB0021601E44
:101C2000844A42F8201088480088401E864908806F
:101C300083480069001F8249086108464069001F07
:101C4000486131E08148008818B1804800888542A9
:101C500001DB07200DE67D480088AAEB400000EB81
:101C6000450084B27548008800EB4000504486B2BD
:101C70000EE0A01C6F4951F820000A4642F82400EB
:101C8000E01C51F82010601C42F82010A01C84B207
:101C9000B442EEDB6D480088401E6C4908806848FD
:101CA0004069083866494861042065490860012098
:101CB000DFE570B504460D466548844202D06548AC
:101CC000844200D104E040F23F51634804F07DFDBE
:101CD000687B10B1687B012800D104E04FF4A86153
:101CE0005D4804F072FD687B48B92868C00A00B9F5
:101CF0000EE040F24351584804F067FD08E02868C0
:101D0000400F00B904E040F24751534804F05DFD34
:101D1000287B001100B904E040F249514E4804F01C
:101D200054FDA87B10B1A87B012800D104E040F24B
:101D30004A51494804F049FDE06900F00400E0B36D
:101D4000206B20F470202063206B297B40EA014047
:101D50002063A87B012804D1206B40F080402063E1
:101D600003E0206B20F080402063687B012804D1D1
:101D7000206B40F00040206303E0206B20F0004027
:101D80002063286860632979687941EA0021A8798D
:101D900041EA0041E87941EA0066A663297A687A57
:101DA00041EA0021A87A41EA0041E87A41EA006666
:101DB000E66321206060012070BDFFE7E06900F468
:101DC0008060B0B3206C20F470202064206C297BEC
:101DD00040EA01402064A87B012804D1206C40F037
:101DE0008040206403E0206C20F080402064687B09
:101DF000012804D1206C40F00040206403E0206CF6
:101E000020F000402064286860642979687941EAFC
:101E10000021A87941EA0041E87941EA0066A66418
:101E2000297A687A41EA0021A87A41EA0041E87AF1
:101E300014E01AE00080034008C0072006C0072015
:101E400000C003400AC007200CC007200EC00720B6
:101E500000400440008004409009000041EA006610
:101E6000E664412060600120A6E7E06900F480207C
:101E7000E0B3206D20F470202065206D297B40EABE
:101E800001402065A87B012804D1206D40F08040EE
:101E9000206503E0206D20F080402065687B0128EC
:101EA00004D1206D40F00040206503E0206D20F05B
:101EB00000402065286860652979687941EA002139
:101EC000A87941EA0041E87941EA0066A665297AE5
:101ED000687A41EA0021A87A41EA0041E87A41EAB9
:101EE0000066E66581206060012065E7FFE700206D
:101EF00062E770B505460C46F848854202D0F848BE
:101F0000854200D104E040F2D951F64804F05DFC6E
:101F1000E86900F00100002825D0286AC00F60732E
:101F2000286AC0F38070A073286AC0F3034020734E
:101F3000686A2060A07B90B9AE6A2671310A61712F
:101F4000310CA171310EE171EE6A2672310A6172B3
:101F5000310CA172310EE1720420686005E00420AA
:101F60006860012070BD0020FCE70120FAE72DE940
:101F7000F35F0C46DC490098884200D104E040F24F
:101F80001B61D84804F021FC0027D748406A30B1D3
:101F9000D548476A4FF000094FF01F0A08E0D248C1
:101FA000806A28B1D048876A4FF020094FF03F0A75
:101FB000002F47D04FF00008C84641E007F0010B62
:101FC0007F08BBF1000F39D0C7484069C7490844B2
:101FD00008EB480100EB8105286800F04070B0F183
:101FE000407F2BD1286820F0407028602D1D2E687E
:101FF0002671310A6171310CA171310EE1712D1D13
:102000002E682672310A6172310CA172310EE172B2
:10201000083D2888C0F30A0020602868C0F3034008
:102020002073002060732868C0F38070A073286854
:1020300000F0407010B90120BDE8FC9F08F10108D4
:10204000D045BBD90320F7E770B504460D46A34839
:10205000844202D0A248844200D104E040F271617F
:10206000A04804F0B2FB2DB1012D03D0022D01D008
:10207000032D00D104E040F272619A4804F0A5FB00
:1020800025B1012D04D0022D06D103E0A06870BD5A
:10209000E068FCE7A069FAE7E069F8E770B5044694
:1020A0000D469348844200D104E040F28F618D4890
:1020B00004F08BFB1DB1012D01D0022D00D104E0F5
:1020C0004FF4D261874804F080FB15B1012D04D193
:1020D00001E0206870BD6068FCE7A068FAE770B5B1
:1020E00005460C4616467D48854202D07C4885420E
:1020F00000D104E04FF4D7617A4804F066FBACB13C
:10210000012C13D0022C11D0032C0FD0042C0DD095
:10211000052C0BD0062C09D0072C07D0082C05D095
:10212000092C03D00A2C01D00B2C00D104E040F282
:10213000B9616C4804F049FB0EB1012E00D104E0F6
:1021400040F2BA61674804F040FB012E0ED10B2C1F
:1021500006D101206449086008620420086013E089
:1021600028690121A140084328610DE00B2C06D10C
:1021700001205D49086008620020086004E02869C9
:102180000121A1408843286170BD70B505460C4609
:102190005548854200D104E040F2DF61514804F027
:1021A00014FB2CB1012C03D0022C01D0032C00D144
:1021B00004E04FF4DC614B4804F007FB34B1012C20
:1021C00007D0022C08D0032C0CD108E00020286096
:1021D00008E00120286005E00220286002E00420D9
:1021E000286000BF00BF70BD70B504460D4616469E
:1021F0003A48844202D03A48844200D104E04FF485
:10220000E161384804F0E1FA6DB1012D0BD0022DE7
:1022100009D0032D07D0042D05D0052D03D0062DA0
:1022200001D0072D00D104E040F209712D4804F0DF
:10223000CCFA0EB1012E00D104E040F20A71294817
:1022400004F0C3FA082D79D2DFE805F0040713275C
:102250003B54606C0020206070E0012E04D12068A7
:1022600040F00100206003E0206820F001002060C1
:1022700064E0206840F001002060012E04D1206855
:1022800040F00200206003E0206820F0020020609F
:10229000206820F00100206050E0206840F001003C
:1022A0002060012E04D1206840F00400206003E08B
:1022B000206820F004002060206820F001002060E9
:1022C0003CE0012E04D1206840F00800206003E0CB
:1022D000206820F00800206030E00000004004404A
:1022E000008004409009000000C0034000800340CB
:1022F00000000440012E04D1206840F0100020604E
:1023000003E0206820F01000206017E0012E04D1C7
:10231000206840F02000206003E0206820F02000CA
:1023200020600BE0012E04D1206840F08000206086
:1023300003E0206820F08000206000BF00BF70BD77
:1023400070B504460D462548844202D02448844294
:1023500000D104E040F25371224804F036FA60687C
:102360002843606070BD10B504461C48844202D00A
:102370001B48844200D104E04FF4EC61194804F09A
:1023800024FAE06810BD10B504461748844200D115
:1023900004E040F26D71134804F017FA206A08B1A6
:1023A000012010BD0020FCE770B504460D460E4824
:1023B000844200D104E040F27D710A4804F005FA3D
:1023C0000DB1012D00D104E040F27E71054804F00A
:1023D000FCF90DB9606A70BDA06AFCE700400440DA
:1023E000008004409009000000C00340FE480068DF
:1023F00040F07E70FC4908604FF07E708861704745
:1024000000BF011EA0F10100FBD170472DE9F04192
:1024100005460C46F5480078001F0B2807D2DFE878
:1024200000F0A5A606060606FEFDFC06FB0020261B
:1024300000BF7004EC49C8614000C8618000886139
:1024400000BF0846006C40F0FF000864300488615B
:102450008010C86108464665F0038861C861301283
:10246000486500BF1620FFF7CBFFF004DE49C861C6
:102470000120FFF7C5FFF004DB4988618010886107
:1024800000BF00BFC8614000886100BF0846006C03
:1024900040F0FF000864300488618010C86108467D
:1024A0004565F0038861C8612812486500BFF004E3
:1024B000C8610120FFF7A4FFF004CB4988618010B8
:1024C000886100BF00BF212600BFC8614000C8610D
:1024D0008000886100BF0846006C40F0FF0008647F
:1024E0004FF4001088618010C861084646654FF4BB
:1024F00080108861C8613012486500BF1620FFF760
:102500007FFF4FF08070B849C8610120FFF778FF66
:102510004FF08070B44988618010886100BF00BFAF
:10252000C8614000886100BF0846006C40F0FF00B1
:1025300008644FF4001088618010C8610846446543
:102540004FF480108861C8612012486500BF4FF0C9
:102550008070C8610120FFF753FF4FF08070A249DF
:1025600088618010886100BF00BFF2E100BF4E2685
:1025700000BF4FF480009C49C8614000C8618000E2
:10258000886100BF0846006C40F0FF0008644FF40B
:10259000001088618010C861084646654FF48010BD
:1025A0008861C8613012486500BF1620FFF728FF18
:1025B0004FF080708C49C8610120FFF721FF4FF078
:1025C0008070894988618010886100BF00BFC86140
:1025D0004000886100BF0846006C40F0FF000864BE
:1025E0004FF4001088618010C861084645654FF4BB
:1025F00080108861C8612812486500BF4FF0807064
:10260000C8610120FFF7FCFE4FF0807076498861B9
:102610008010886100BF03E09AE156E056E053E085
:1026200000BF4F2600BFC8614000C86180008861BC
:1026300000BF0846006C40F0FF0008644FF4001033
:1026400088618010C861084646654FF48010886133
:10265000C8613012486500BF1620FFF7D1FE4FF069
:1026600080706149C8610120FFF7CAFE4FF0807099
:102670005D4988618010886100BF00BFC86140006B
:10268000886100BF0846006C40F0FF0008644FF40A
:10269000001088618010C861084644654FF48010BE
:1026A0008861C8612012486500BF4FF08070C86122
:1026B0000120FFF7A5FE4FF080704B498861801024
:1026C000886100BF00BF44E100BF00BF02272E1297
:1026D00000BF78054449C8614000C8618000886136
:1026E00000BF0846006C40F0FF00086438058861B0
:1026F0008010C86108464765F8048861C8613812CF
:10270000486500BF1620FFF77BFEF8053649C86113
:102710000120FFF775FEF805334988618010886154
:1027200000BF00BFC8614000886100BF0846006C60
:1027300040F0FF000864380588618010C8610846D1
:102740004665F8048861C8613012486500BFF80525
:10275000C8610120FFF754FEF80523498861801005
:10276000886100BF00BF032600BFC8614000C86188
:102770008000886100BF0846006C40F0FF000864DC
:10278000380588618010C86108464665F80488618C
:10279000C8613012486500BF1620FFF731FEF8050A
:1027A0001149C8610120FFF72BFEF8050E49886129
:1027B0008010886100BF00BFC8614000886100BF11
:1027C0000846006C40F0FF000864380588618010FE
:1027D000C86108464565F8048861C86128124865E3
:1027E00000BFF805C86103E000C0092010C0072041
:1027F0000120FFF705FEF805FE4988618010886119
:1028000000BF00BF0626271200BFC8614000C86194
:102810008000886100BF0846006C40F0FF0008643B
:102820004FF4001088618010C861084646654FF477
:1028300080108861C8613012486500BF1620FFF71C
:10284000DFFD4FF08070EB49C8610120FFF7D8FD34
:102850004FF08070E74988618010886100BF00BF39
:10286000C8614000886100BF0846006C40F0FF006E
:1028700008644FF4001088618010C86108464765FD
:102880004FF480108861C8613812486500BF4FF06E
:102890008070C8610120FFF7B3FD4FF08070D5490B
:1028A00088618010886100BF00BF072600BFC86133
:1028B0004000C8618000886100BF0846006C40F09D
:1028C000FF0008644FF4001088618010C86108465A
:1028D00046654FF480108861C8613012486500BFBA
:1028E0001620FFF78DFD4FF08070C249C8610120AE
:1028F000FFF786FD4FF08070BE49886180108861C7
:1029000000BF00BFC8614000886100BF0846006C7E
:1029100040F0FF0008644FF4001088618010C86127
:10292000084644654FF480108861C86120124865EC
:1029300000BF4FF08070C8610120FFF761FD4FF0CC
:102940008070AC4988618010886100BF00BF00E0E2
:1029500000BF00BFBDE8F081002109E0002201E0D6
:10296000531C9AB240F275439A42F9DB4B1C99B260
:102970008142F3DB704700B585B0FFF737FD642077
:10298000FFF7EAFF00200390039801904FF48000C6
:102990009849C8614000C861800088610198009032
:1029A0000846006C40F0FF0008644FF40010886196
:1029B00081109048C1618F49009848654FF480119B
:1029C0008C48816108468B49C861009800124865AF
:1029D00000BF1620FFF714FD4FF080708549C861D5
:1029E0000120FFF70DFD4FF0807082498861801053
:1029F000886100BF00BFC8614000886140008861F5
:102A00004000C86100BF0846006C20F0FF00086469
:102A10004FF40010C8618010C8611E20FFF7F0FC61
:102A200074485430007800904FF400207149886158
:102A30001E20FFF7E5FC6F4890F85410009841EA1B
:102A4000002000904FF400106A49886100980190BE
:102A50004FF000708861C010886101980290029860
:102A6000049049F225310498884204D0C91C049886
:102A7000884242F0F28601205F490870E720029008
:102A800010200390029801904FF480015948C161D1
:102A900048005849C8618000886101980090084644
:102AA000006C40F0FF0008644FF400108861801053
:102AB000C861009848654FF480108861C86100982B
:102AC0000012486500BF1620FFF79AFC4FF0807097
:102AD0004849C8610120FFF793FC4FF080714548D9
:102AE00081618910816100BF0398019008464149C6
:102AF000C86140008861019800900846006C40F071
:102B0000FF0008644FF4001088618010C8610098CD
:102B100048654FF480108861C861009800124865CC
:102B200000BF4FF08070C8610120FFF769FC4FF0D3
:102B300080713048816188102E49886100BF00BFD4
:102B40000020029001200390029801904FF4800130
:102B50002848C16148002749C86180008861019800
:102B600000900846006C40F0FF0008644FF400102D
:102B700088618010C861009848654FF480108861B2
:102B8000C86100980012486500BF1620FFF738FCA6
:102B90004FF080701749C8610120FFF731FC4FF0FA
:102BA00080701449886181101248816100BF0398C8
:102BB00001901048C16148000E4988610198009059
:102BC0000846006C40F0FF0008644FF40010886174
:102BD0008010C861009848654FF4801088610146F4
:102BE0000448C161009800120249486500BF4FF0D7
:102BF000807003E000C0092010C00720C8610120D8
:102C0000FFF7FEFB4FF08070FE4988618110FD48A0
:102C1000816100BF00BF0120029000020390029872
:102C200001900846F749C8614000C8618100F54835
:102C3000816101980090F348006C40F0FF00F14979
:102C400008644FF4001088618010C86100984865DE
:102C50004FF480108861C86100980012486500BF79
:102C60001620FFF7CDFB4FF08070E649C8610120C8
:102C7000FFF7C6FB4FF08070E24988618110E148A0
:102C8000816100BF039801900846DE49C861400099
:102C90008861019800900846006C40F0FF000864CD
:102CA0004FF4001088618010C861009848654FF4A7
:102CB00080108861C86100980012486500BF4FF01D
:102CC0008070C8610120FFF79BFB4FF08070CD49F9
:102CD00088618110CB48816100BF00BF0220029053
:102CE0004FF4E060039002980190C648C16148002B
:102CF000C449C86180008861019800900846006C52
:102D000040F0FF0008644FF4001088618010C86133
:102D1000009848654FF4801088610146B948C16148
:102D200000980012B749486500BF1620FFF768FBFE
:102D30004FF08070B349C8610120FFF761FB4FF08D
:102D40008070B04988618110AE48816100BF0398EE
:102D500001900846AB49C861400088610198009025
:102D60000846006C40F0FF0008644FF400108861D2
:102D70008010C861009848654FF480108861C86170
:102D800000980012486500BF4FF08070C8610120B4
:102D9000FFF736FB4FF080709A498861811099489F
:102DA000816100BF00BF0320029041F23000039018
:102DB000029801909348C16148009249C86181001E
:102DC00090488161019800908E48006C40F0FF00AF
:102DD0008C4908644FF4001088618010C861009825
:102DE00048654FF480108861C861009801128548D9
:102DF000416500BF1620FFF703FB4FF0807081494B
:102E0000C8610120FFF7FCFA4FF080707D498861AE
:102E100081107C48816100BF039801900846794980
:102E2000C861410077488161019800907548006C45
:102E300040F0FF00734908644FF40010886180106F
:102E4000C861009848654FF480108861C861009897
:102E50000012486500BF4FF080716A48C1610120CF
:102E6000FFF7CEFA4FF0807066498861811065489F
:102E7000816100BF00BF04200290002003900298EF
:102E8000019008465F49C86141005E48C161880001
:102E90005C498861019800900846006C40F0FF0092
:102EA00008644FF4001088618010C861009848657C
:102EB0004FF480108861C86100980012486500BF17
:102EC0001620FFF79DFA4FF080714E48C161012036
:102ED000FFF796FA4FF080704A4988618010886148
:102EE00000BF039801904FF48000C86140008861E2
:102EF000019800900846006C40F0FF0141480164D1
:102F00004FF4001181618910C1613E490098486504
:102F10004FF48010886101463A48C1610098001260
:102F20003849486500BF4FF080713648C1610120C3
:102F3000FFF766FA4FF0807032498861811031489E
:102F4000816100BF00BF0820029040F2072003907B
:102F5000029801902B48C1614900C161880029494C
:102F60008861019800900846006C40F0FF000864FA
:102F70004FF4001088618010C861009848654FF4D4
:102F800080108861C861009801121E48416500BF29
:102F90001620FFF735FA4FF080701A49C8610120FA
:102FA000FFF72EFA4FF08070164988618010886113
:102FB00000BF039801904FF48000C86141001148A0
:102FC0008161019800900F48006C40F0FF000D49AE
:102FD00008644FF4001088618010C861009848654B
:102FE0004FF480108861C86100980012486500BFE6
:102FF0004FF080710348C1610120FFF701FA4FF0E3
:10300000807001E000C00920FE498861801088615D
:1030100000BF00BF09200290002003900298019099
:103020004FF48000C8614000C86180008861019849
:1030300000900846006C40F0FF0008644FF4001058
:1030400088618010C861009848654FF480108861DD
:10305000C86100980012486500BF1620FFF7D0F93C
:103060004FF08070E749C8610120FFF7C9F94FF0C0
:103070008070E44988618010886100BF03980190E6
:103080004FF48000C86140008861019800900846B4
:10309000006C40F0FF0008644FF40010886180105D
:1030A000C861009848654FF48011D6488161C161BC
:1030B00000980012D349486500BF4FF08070C86186
:1030C0000120FFF79DF94FF08070CE498861811093
:1030D000CC48816100BF00BF0A200290002003900D
:1030E00002980190C748C1614800C649C861810083
:1030F000C448816101980090C248006C40F0FF0014
:10310000C04908644FF4001088618010C8610098BD
:1031100048654FF480108861C861009800124865C6
:1031200000BF1620FFF76CF94FF08070B549C861F9
:103130000120FFF765F94FF08070B2498861801077
:10314000886100BF039801904FF48000C86140007F
:103150008861019800900846006C40F0FF00086408
:103160004FF4001088618010C861009848654FF4E2
:1031700080108861C86100980012486500BF4FF058
:103180008070C8610120FFF73BF94FF080719D48C6
:10319000816188109B49886100BF00BF0C200290AC
:1031A00001200390029801904FF48000C861400014
:1031B000C86180008861019800900846006C40F06A
:1031C000FF0008644FF4001088618010C861009807
:1031D00048654FF480108861C86100980012486506
:1031E00000BF1620FFF70CF94FF080718548C161D0
:1031F0000120FFF705F94FF0807182488161891045
:10320000816100BF039801907E48C16148007D49FB
:103210008861019800900846006C40F0FF00086447
:103220004FF4001088618010C861009848654FF421
:103230008010886101467348C1610098011271488D
:10324000416500BF4FF080706E49C8610120FFF7F3
:10325000D7F84FF080716B488161881069498861A7
:1032600000BF00BF0D200290002003900298019043
:103270004FF48000C8614000C861800088610198F7
:1032800000900846006C40F0FF0008644FF4001006
:1032900088618010C861009848654FF4801088618B
:1032A000C86100980012486500BF1620FFF7A8F813
:1032B0004FF080705349C8610120FFF7A1F84FF02B
:1032C00080715048816188104E49886100BF039821
:1032D00001904FF480014B48C16149008161019820
:1032E00000904848006C40F0FF00464908644FF4E5
:1032F000001088618010C861009848654FF4801004
:103300008861C86100980012486500BF4FF0807066
:10331000C8610120FFF774F84FF08071394881616E
:1033200088103849886100BF00BF0F20029000203C
:103330000390029801904FF48000C8614000C8617A
:1033400080008861019800900846006C40F0FF0002
:1033500008644FF4001088618010C86100984865C7
:103360004FF480108861C86100980012486500BF62
:103370001620FFF745F84FF080702249C861012000
:10338000FFF73EF84FF080701E49886181101D489C
:10339000816100BF039801901A48C1614800194932
:1033A0008861019800900846006C40F0FF011548C4
:1033B00001644FF4001181618910C16111490098C5
:1033C00048654FF480110F488161C1610098001277
:1033D0000C49486500BF4FF080710A48C161012067
:1033E000FFF70EF84FF0807106488161881005499B
:1033F000886100BF00BF1020029000200390029857
:10340000019001E000C009204FF48000C861410034
:10341000FE48C1618800FD49886101980090084616
:10342000006C40F0FF0008644FF4001088618010C9
:10343000C861009848654FF480108861C8610098A1
:103440000012486500BF1620FEF7DAFF4FF08071CA
:10345000EE48C1610120FEF7D3FF4FF08070EB49C9
:1034600088618110E948816100BF03980190E748B5
:10347000C1614900816101980090E448006C40F00E
:10348000FF00E24908644FF40011E04881618810B0
:10349000DE49C861009848654FF480108861014694
:1034A000DA48C16100980112D848416500BF4FF069
:1034B0008070D649C8610120FEF7A2FF4FF08070EE
:1034C000D24988618010886100BF00BF112002903E
:1034D00007200390029801904FF48000C8614000DB
:1034E000C86180008861019800900846006C40F037
:1034F000FF0008644FF4001088618010C8610098D4
:1035000048654FF480108861C861009800124865D2
:1035100000BF1620FEF774FF4FF08071BB48C161F9
:103520000120FEF76DFF4FF08071B848816188106F
:10353000B649886100BF039801904FF48000C861CC
:1035400040008861019800900846006C40F0FF0040
:1035500008644FF4001088618110AC48C161AB4928
:10356000009848654FF48011A8488161C1610098B6
:103570000012A649486500BF4FF08070C861012065
:10358000FEF73EFF4FF08071A04881618910816194
:1035900000BF00BF1220029000200390029801900B
:1035A00008469A49C8614000C86180008861019856
:1035B00000900846006C40F0FF0008644FF40010D3
:1035C000886181109148C1619049009848654FF425
:1035D00080118E48816108468C49C86100980012AC
:1035E000486500BF1620FEF70BFF4FF0807087493B
:1035F000C8610120FEF704FF4FF0807083498861A5
:103600008010886100BF039801904FF480017F48CB
:10361000C16149008161019800907C48006C40F0D4
:10362000FF007A4908644FF40010886181107748E0
:10363000C1617649009848654FF480108861C8617F
:1036400000980012486500BF4FF080716F48C1615B
:103650000120FEF7D5FE4FF080706C498861801024
:10366000886100BF00BF13200290002003900298E1
:1036700001904FF48000C8614000C86180008861FB
:10368000019800900846006C40F0FF0008644FF479
:10369000001088618010C861009848654FF4801060
:1036A000886101465948C161009800125749486530
:1036B00000BF1620FEF7A4FE4FF080705349C8618A
:1036C0000120FEF79DFE4FF0807050498861801008
:1036D000886100BF039801904FF48000C8614000EA
:1036E0008861019800900846006C40F0FF00086473
:1036F0004FF400114548816188104449C861009821
:1037000048654FF480108861C861009800124865D0
:1037100000BF4FF08070C8610120FEF771FE4FF0CE
:1037200080703A49886181103848816100BF00BFCC
:103730003220FFF711F91020029041F290500390CF
:10374000029801904FF480003049C8614000C86180
:1037500080008861019800900846006C40F0FF00EE
:1037600008644FF4001088618010C86100984865B3
:103770004FF480108861C86100980012486500BF4E
:103780001620FEF73DFE4FF080702049C8610120F1
:10379000FEF736FE4FF080701C498861801088610A
:1037A00000BF039801904FF48000C8614000886119
:1037B000019800900846006C40F0FF011348016436
:1037C0004FF400101149886181101048C1610F4900
:1037D000009848654FF48010886101460B48C1612C
:1037E000009801120948416500BF4FF080700749F9
:1037F000C8610120FEF704FE4FF080700349886124
:103800008010886100BF00BF112001E000C00920C6
:10381000029040F227200390029801904FF480001C
:10382000C8614000C8618000886101980090084626
:10383000006C40F0FF0008644FF4001088618010B5
:10384000C861009848654FF480108861C86100988D
:103850000012486500BF1620FEF7D2FD4FF08071C0
:10386000FE48C1610120FEF7CBFD4FF08071FB489F
:1038700081618810F949886100BF039801904FF475
:103880008001F648C1614800F449886101980090C0
:103890000846006C40F0FF0008644FF40010886197
:1038A0008010C861009848654FF480108861014617
:1038B000EA48C16100980012E849486500BF4FF02E
:1038C0008070C8610120FEF79BFD4FF08070E349D6
:1038D00088618110E148816100BF00BF3220FFF79D
:1038E0003BF8122002909C200390029801904FF424
:1038F0008000DA49C8614000C86180008861019891
:1039000000900846006C40F0FF0008644FF400107F
:1039100088618110D148C161D049009848654FF451
:1039200080108861C86100980012486500BF1620A9
:10393000FEF766FD4FF08071C848C1610120FEF7B7
:103940005FFD4FF08070C54988618010886100BFBD
:10395000039801904FF48000C8614100BF48816125
:1039600001980090BD48006C40F0FF00BB4908641E
:103970004FF4001088618110B848C161B7490098C0
:1039800048654FF480108861C8610098001248654E
:1039900000BF4FF08071B148C1610120FEF730FDDA
:1039A0004FF08071AD4881618810AC49886100BFDB
:1039B00000BF3220FEF7D0FF132002904FF4C85012
:1039C0000390029801904FF48000A449C86141001F
:1039D000A248C16189008161019800909F48006CF4
:1039E00040F0FF009D4908644FF40010886180108A
:1039F000C861009848654FF4801088610146974877
:103A0000C161009800129549486500BF1620FEF775
:103A1000F7FC4FF080709149C8610120FEF7F0FC7F
:103A20004FF080718D48816188108C49886100BF9A
:103A3000039801904FF48000C8614100874881617C
:103A4000019800908548006C40F0FF0183480164B4
:103A50004FF40011816188108049C8610098486561
:103A60004FF480117D48816108467C49C861009807
:103A70000012486500BF4FF08070C8610120FEF75A
:103A8000BFFC4FF08071754881618910816100BF72
:103A900000BF2920029023200390029801906F48D4
:103AA000C16148006D49C86180008861019800903B
:103AB0000846006C40F0FF0008644FF40010886175
:103AC0008010C861009848654FF480108861C86113
:103AD00000980012486500BF1620FEF791FC4FF0D9
:103AE00080705E49C8610120FEF78AFC4FF080704B
:103AF0005A4988618010886100BF039801904FF493
:103B00008000C86141005548816101980090534888
:103B1000006C40F0FF00514908644FF400108861C8
:103B20008010C861009848654FF480108861C861B2
:103B300000980012486500BF4FF08070C8610120F6
:103B4000FEF75EFC4FF08071444881618810434964
:103B5000886100BF00BF2B2002900E2003900298C6
:103B600001904FF48000C86141003C48C161890068
:103B70008161019800903948006C40F0FF0037499E
:103B800008644FF4001088618010C861009848658F
:103B90004FF48010886101463048C16100980012DE
:103BA0002E49486500BF1620FEF72AFC4FF08070B2
:103BB0002A49C8610120FEF723FC4FF08070274995
:103BC00088618010886100BF039801904FF48000E5
:103BD000C86140008861019800900846006C40F080
:103BE000FF011E4801644FF400101C4988618110D8
:103BF0001A48C1611949009848654FF48011174867
:103C00008161C161009800121449486500BF4FF0FE
:103C10008070C8610120FEF7F3FB4FF080710F4800
:103C2000816188100D49886100BF00BF3220FEF716
:103C300093FE2020029000200390029801904FF400
:103C400080010648C16148000449C861800088615C
:103C5000019800900846006C02E0000000C00920B6
:103C600040F0FF0008644FF4001088618010C861C4
:103C7000009848654FF480108861C8610098001270
:103C8000486500BF1620FEF7BBFB4FF08070FE4971
:103C9000C8610120FEF7B4FB4FF08070FA498861DB
:103CA0008010886100BF039801904FF48001F648AE
:103CB000C1614800F4498861019800900846006C91
:103CC00040F0FF0008644FF4001088618110EE4856
:103CD000C161ED49009848654FF480108861C86162
:103CE00000980012486500BF4FF08070C861012045
:103CF000FEF786FB4FF08070E34988618010886191
:103D000000BF00BF21200290002003900298019084
:103D10004FF48001DC48C1614900C16189008161C3
:103D200001980090D848006C40F0FF00D649086424
:103D30004FF4001088618010C861009848654FF406
:103D4000801088610146D048C16100980012CE49B8
:103D5000486500BF1620FEF753FB4FF08070CA493C
:103D6000C8610120FEF74CFB4FF08070C6498861A6
:103D70008010886100BF039801904FF48000C861F3
:103D800040008861019800900846006C40F0FF00F8
:103D900008644FF4001088618010C861009848657D
:103DA0004FF48011B84881610846B749C86100984E
:103DB0000012486500BF4FF08070C8610120FEF717
:103DC0001FFB4FF08070B04988618010886100BF90
:103DD00000BF3220FEF7C0FD302002900720039084
:103DE000029801904FF48001A748C1614800A6499C
:103DF000C86180008861019800900846006C40F01E
:103E0000FF0008644FF4001088618010C8610098BA
:103E100048654FF480108861C861009801129A4883
:103E2000416500BF1620FEF7EBFA4FF0807196480F
:103E3000C1610120FEF7E4FA4FF080709249886179
:103E400081109148816100BF0398019008468E4916
:103E5000C86141008C488161019800908A48006CDB
:103E600040F0FF00884908644FF40010886180101A
:103E7000C861009848654FF4801088610146824807
:103E8000C161009801128048416500BF4FF0807009
:103E90007D49C8610120FEF7B3FA4FF080717A487E
:103EA000816188107849886100BF00BF312002908D
:103EB00040F207700390029801904FF48000C861AF
:103EC00041007148C16189008161019800906E488C
:103ED000006C40F0FF006C4908644FF400108861EA
:103EE0008010C861009848654FF480108861C861EF
:103EF00000980012486500BF1620FEF781FA4FF0C7
:103F000080706149C8610120FEF77AFA4FF0807035
:103F10005D4988618010886100BF039801904FF46B
:103F20008000C8614100584881610198009056485E
:103F3000006C40F0FF00544908644FF400108861A1
:103F40008010C861009848654FF480114E48816127
:103F5000C161009800124C49486500BF4FF0807065
:103F6000C8610120FEF74CFA4FF08071464881612C
:103F700088104549886100BF00BF322002900620AA
:103F80000390029801904FF48000C8614000C8611E
:103F900081003D488161019800903B48006C40F0F1
:103FA000FF00394908644FF40011374881618810D7
:103FB0003549C861009848654FF480108861014612
:103FC0003148C161009800122F49486500BF162092
:103FD000FEF716FA4FF080702B49C8610120FEF7FA
:103FE0000FFA4FF08070284988618010886100BF07
:103FF000039801904FF48000C8614100224881611C
:10400000019800902048006C40F0FF001E490864B1
:104010004FF4001088618010C861009848654FF423
:10402000801119488161C1610098001216494865E4
:1040300000BF4FF08070C8610120FEF7E1F94FF03A
:104040008070114988618010886100BF00BF3520F1
:10405000029040F204700390029801904FF48000A7
:10406000C8614000C86180008861019800900846DE
:10407000006C40F0FF0008644FF40010886180106D
:10408000C8610098486501E000C009204FF4801025
:1040900088610146FE48C16100980012FC494865EC
:1040A00000BF1620FEF7ACF94FF08070F849C861E8
:1040B0000120FEF7A5F94FF08070F5498861801066
:1040C000886100BF039801904FF48001F048C161FE
:1040D0004800EF498861019800900846006C40F064
:1040E000FF01EB4801644FF4001181618910C16147
:1040F000E749009848654FF48011E5488161C16146
:1041000000980012E249486500BF4FF08070C86116
:104110000120FEF775F94FF08071DD48816188104C
:10412000DB49886100BF00BF3620029041F6047071
:104130000390029801904FF48001D548C161480076
:10414000D349C8618100D248816101980090D0486C
:10415000006C40F0FF00CE4908644FF40010886105
:104160008010C861009848654FF480108861C8616C
:1041700000980112C648416500BF1620FEF740F9BD
:104180004FF08071C248C1610120FEF739F94FF04C
:104190008070BF4988618010886100BF03980190DA
:1041A0004FF48000C8614000886101980090084683
:1041B000006C40F0FF0008644FF40010886180102C
:1041C000C861009848654FF48011B1488161084684
:1041D000AF49C86100980012486500BF4FF0807178
:1041E000AB48C1610120FEF70BF94FF08071A84880
:1041F00081618810A649886100BF00BF3720029006
:1042000004200390029801904FF48000C86141009F
:104210009F48C16188009E498861019800900846C6
:10422000006C40F0FF0008644FF4001088618010BB
:10423000C861009848654FF480108861C861009893
:104240000012486500BF1620FEF7DAF84FF08070C4
:104250008F49C8610120FEF7D3F84FF080708C4978
:1042600088618010886100BF039801904FF480003E
:10427000C86140008861019800900846006C40F0D9
:10428000FF0008644FF4001088618010C861009836
:1042900048654FF48010886101467D48C1610098EF
:1042A00001127B48416500BF4FF08071C161012060
:1042B000FEF7A6F84FF0807075498861801088611C
:1042C00000BF00BF382002900020039002980190A8
:1042D0004FF480016E48C1614900C16188006C499A
:1042E0008861019800900846006C40F0FF01684822
:1042F00001644FF40011816188106549C86100981C
:1043000048654FF4801162488161C16100980112D3
:104310005F48416500BF1620FEF772F84FF08071CC
:104320005B48C1610120FEF76BF84FF0807158487F
:10433000816188105649886100BF039801904FF44D
:104340008000C86140008861019800900846006CB8
:1043500040F0FF0008644FF400114D48816189105E
:10436000C1614B49009848654FF48011484881610C
:1043700008464749C86100980012486500BF4FF0E1
:104380008070C8610120FEF73BF84FF08070404913
:10439000886181103E48816100BF00BF39200290D2
:1043A00040F2067003900298019008463849C861AF
:1043B0004000C86180008861019800900846006C48
:1043C00040F0FF0008644FF4001088618010C8615D
:1043D000009848654FF48010886101462C48C161FF
:1043E000009800122A49486500BF1620FEF708F819
:1043F0004FF080702649C8610120FEF701F84FF0A8
:104400008070234988618010886100BF0398019003
:104410004FF48000C8614000886101980090084610
:10442000006C40F0FF011A4801644FF40010184975
:1044300088618010C861009848654FF48011144865
:104440008161C161009800121149486500BF4FF0B9
:1044500080710F48C1610120FDF7D2FF4FF08070DD
:104460000B4988618010886100BF00BF3C2002902A
:1044700040F201700390029801904FF480010448CB
:10448000C16148000249C86180008861019801E06B
:1044900000C0092000900846006C40F0FF0008644E
:1044A0004FF4001088618010C861009848654FF48F
:1044B00080108861C86100980112FE48416500BF04
:1044C0001620FDF79DFF4FF08071FA48C161012071
:1044D000FDF796FF4FF08070F64988618110F5482E
:1044E000816100BF039801900846F249C86141000C
:1044F000F048816101980090EE48006C40F0FF00A8
:10450000EC4908644FF40011EA4881618810E949D8
:10451000C861009848654FF4801088610146E548FD
:10452000C16100980112E348416500BF4FF08070FF
:10453000E049C8610120FDF763FF4FF08070DD495D
:1045400088618010886100BF00BF3D2002900F206D
:104550000390029801904FF48000C8614000C86148
:1045600080008861019800900846006C40F0FF00D0
:1045700008644FF4001088618010C8610098486595
:104580004FF480108861C86100980012486500BF30
:104590001620FDF735FF4FF08070C649C861012035
:1045A000FDF72EFF4FF08070C2498861801088614E
:1045B00000BF039801904FF48000C86140008861FB
:1045C000019800900846006C40F0FF01B948016472
:1045D0004FF40010B74988618010C86100984865A1
:1045E0004FF480108861C86100980112B14841659C
:1045F00000BF4FF08070AF49C8610120FDF700FF98
:104600004FF08070AB4988618010886100BF00BFA7
:104610003220FEF7A1F9502002900020039002986A
:1046200001904FF48000A349C8614000C861800038
:104630008861019800900846006C40F0FF019D4899
:1046400001644FF4001181618910C161994900989A
:1046500048654FF480108861C86100980112954840
:10466000416500BF1620FDF7CBFE4FF080709149E9
:10467000C8610120FDF7C4FE4FF080708D4988614C
:104680008010886100BF039801904FF48000C861DA
:1046900040008861019800900846006C40F0FF00DF
:1046A00008644FF4001088618010C8610098486564
:1046B0004FF480117F48816108467E49C8610098A7
:1046C0000012486500BF4FF08070C8610120FDF7FF
:1046D00097FE4FF08070774988618010886100BF35
:1046E00000BF51200290EF200390029801904FF4F8
:1046F00080017048C16148006E49C86180008861CE
:10470000019800900846006C40F0FF0008644FF4E8
:10471000001088618010C861009848654FF48010CF
:10472000886101466348C16100980012614948658B
:1047300000BF1620FDF764FE4FF080705D49C86130
:104740000120FDF75DFE4FF080705A4988618010AE
:10475000886100BF039801904FF48000C861400059
:104760008861019800900846006C40F0FF015148B4
:1047700001644FF400104F4988618010C8610098AF
:1047800048654FF480114B488161C1610098001267
:104790004849486500BF4FF08070C8610120FDF7AF
:1047A0002FFE4FF08070434988618010886100BF00
:1047B00000BF5220029000200390029801904FF415
:1047C00080013C48C16148003A49C86181003948CC
:1047D0008161019800903748006C40F0FF00354936
:1047E00008644FF4001088618010C8610098486523
:1047F0004FF480108861C861009801122D4841650E
:1048000000BF1620FDF7FCFD4FF080712948C16103
:104810000120FDF7F5FD4FF080702649886180107A
:10482000886100BF039801904FF48000C861400088
:104830008861019800900846006C40F0FF00086411
:104840004FF4001088618010C861009848654FF4EB
:1048500080111848816108461649C8610098001205
:10486000486500BF4FF08070C8610120FDF7C8FDAA
:104870004FF080700F4988618010886100BF00BFD1
:104880005320029040F23F100390029801904FF4A1
:104890008000C86141000748C161880005498861FE
:1048A000019800900846006C40F0FF0008644FF447
:1048B000001001E000C0092088618010C8610098E4
:1048C00048654FF4801088610146FE48C161009838
:1048D0000012FC49486500BF1620FDF791FD4FF01E
:1048E0008070F849C8610120FDF78AFD4FF08071A2
:1048F000F44881618810F349886100BF03980190F2
:104900004FF48000C861400088610198009008461B
:10491000006C40F0FF0008644FF4001088618010C4
:10492000C861009848654FF480108861C86100989C
:104930000112E448416500BF4FF08070E149C86151
:104940000120FDF75DFD4FF08070DE498861801029
:10495000886100BF00BF602002904FF427400390A1
:10496000029801904FF48001D648C1614800D549B2
:10497000C86180008861019800900846006C40F092
:10498000FF01D04801644FF4001181618810CD49C6
:10499000C861009848654FF48011CA488161C161BF
:1049A00000980112C748416500BF1620FDF728FD99
:1049B0004FF08071C348C1610120FDF721FD4FF028
:1049C0008071C04881618810BE49886100BF03982A
:1049D00001904FF48000C861400088610198009008
:1049E0000846006C40F0FF0008644FF40011B54821
:1049F00081618910C161B349009848654FF4801105
:104A0000B04881610846AF49C86100980012486506
:104A100000BF4FF08070C8610120FDF7F1FC4FF03E
:104A20008070A84988618110A648816100BF00BFDD
:104A30006120029001200390029801900846A1494C
:104A4000C8614000C86180008861019800900846F4
:104A5000006C40F0FF0008644FF400108861801083
:104A6000C861009848654FF48010886101469548F8
:104A7000C161009800129349486500BF1620FDF7F8
:104A8000BFFC4FF080708F49C8610120FDF7B8FC72
:104A90004FF080708B49886181108A48816100BF26
:104AA0000398019008468749C861400088610198D1
:104AB00000900846006C40F0FF01824801644FF40A
:104AC0000010804988618010C861009848654FF4E3
:104AD00080117C488161C161009800127949486564
:104AE00000BF4FF080717748C1610120FDF788FC5D
:104AF0004FF08070734988618010886100BF00BFEB
:104B00006A20029000200390029801904FF48000E8
:104B1000C8614000C86181006A48816101980090C5
:104B20006848006C40F0FF00664908644FF40010CC
:104B300088618010C861009848654FF480108861D2
:104B4000C861009801125F48416500BF1620FDF75B
:104B500057FC4FF080715B48C1610120FDF750FCAC
:104B60004FF08070574988618010886100BF0398BA
:104B700001904FF480015348C16148005149886158
:104B8000019800900846006C40F0FF0008644FF464
:104B900000114C48816188104A49C86100984865F5
:104BA0004FF48010886101464648C16100980112A7
:104BB0004448416500BF4FF080704249C861012000
:104BC000FDF71EFC4FF080703E49886181103D4822
:104BD000816100BF00BF80200290002003900298F6
:104BE000019008463749C86141003648C1618800D4
:104BF00034498861019800900846006C40F0FF003D
:104C000008644FF4001088618010C86100984865FE
:104C10004FF480108861C86100980012486500BF99
:104C20001620FDF7EDFB4FF080702649C86101208A
:104C3000FDF7E6FB4FF080712248816189108161A8
:104C400000BF0398019008461E49C86141001D48F5
:104C50008161019800901B48006C40F0FF011948E9
:104C600001644FF400101749886181101548C16133
:104C70001449009848654FF4801112488161084634
:104C80001049C86100980012486500BF4FF080705D
:104C9000C8610120FDF7B4FB4FF0807109488161C4
:104CA00088100849886100BF00BF81200290002061
:104CB0000390029801904FF480010248C1614800BE
:104CC000004901E000C00920C8618100FE488161FF
:104CD00001980090FC48006C40F0FF01FA48016424
:104CE0004FF4001181618810F749C8610098486548
:104CF0004FF480108861C86100980112F248416544
:104D000000BF1620FDF77CFB4FF08071EE48C161BB
:104D10000120FDF775FB4FF08071EB488161881031
:104D2000E949886100BF039801904FF48001E6488B
:104D3000C1614800E4498861019800900846006C10
:104D400040F0FF0008644FF40011DF4881618810D3
:104D5000DD49C861009848654FF48011DA488161E7
:104D60000846D949C86100980012486500BF4FF055
:104D70008070C8610120FDF743FB4FF08070D2497D
:104D800088618010886100BF00BF822002900020EF
:104D90000390029801904FF48000C8614100CA4816
:104DA000C1618800C8498861019800900846006C7C
:104DB00040F0FF0008644FF4001088618010C86163
:104DC000009848654FF4801088610146BE48C16173
:104DD00000980012BC49486500BF1620FDF710FB83
:104DE0004FF08070B849C8610120FDF709FB4FF012
:104DF0008070B54988618110B348816100BF039814
:104E000001900846B049C86140008861019800904F
:104E10000846006C40F0FF01AB4801644FF40011FC
:104E200081618910C161A849009848654FF48010DC
:104E300088610146A448C16100980012A2494865F2
:104E400000BF4FF08071A048C1610120FDF7D8FA82
:104E50004FF080709C4988618010886100BF00BF5E
:104E60008320029000200390029801904FF480006C
:104E7000C8614000C86180008861019800900846C0
:104E8000006C40F0FF0008644FF40010886180104F
:104E9000C861009848654FF480108861C861009827
:104EA00001128948416500BF1620FDF7A9FA4FF0AD
:104EB00080708549C8610120FDF7A2FA4FF080702B
:104EC000814988618010886100BF039801904FF488
:104ED00080017D48C16148007B498861019800904C
:104EE0000846006C40F0FF01774801644FF4001061
:104EF000754988618010C861009848654FF4801139
:104F00007148816108467049C8610098001248657F
:104F100000BF4FF080716C48C1610120FDF770FA4D
:104F20004FF08070684988618010886100BF00BFC1
:104F30008420029000200390029801904FF4800199
:104F40006148C16148006049C8618000886101987A
:104F500000900846006C40F0FF0008644FF4001019
:104F600088618010C861009848654FF4801088619E
:104F7000C86100980012486500BF1620FDF740FA8E
:104F80004FF080705049C8610120FDF739FA4FF0A9
:104F900080704D4988618010886100BF039801903E
:104FA0004FF48000C8614000886101980090084675
:104FB000006C40F0FF01444801644FF40010424986
:104FC000886181104048C1613F49009848654FF4AD
:104FD00080113D488161C161009801123A484165E4
:104FE00000BF4FF08071C1610120FDF709FA4FF059
:104FF0008070354988618010886100BF00BF8520BE
:10500000029000200390029801904FF480012E48F6
:10501000C16148002C49C8618000886101980090F6
:105020000846006C40F0FF01274801644FF400116E
:10503000816188102449C861009848654FF4801147
:105040002148816108462049C861009801121E4824
:10505000416500BF1620FDF7D3F94FF080701A4963
:10506000C8610120FDF7CCF94FF0807016498861C6
:105070008010886100BF039801904FF48000C861E0
:1050800040008861019800900846006C40F0FF00E5
:1050900008644FF4001088618010C861009848656A
:1050A0004FF480110848816108460749C86100989B
:1050B0000012486500BF4FF08070C8610120FDF705
:1050C0009FF94FF0807101E000C00920FE48816126
:1050D0008810FD49886100BF00BF90200290102019
:1050E0000390029801904FF48000C8614000C861AD
:1050F00080008861019800900846006C40F0FF0035
:1051000008644FF4001088618010C86100984865F9
:105110004FF4801088610146EB48C161009800128D
:10512000E949486500BF1620FDF76AF94FF0807025
:10513000E549C8610120FDF763F94FF08070E2494D
:1051400088618110E048816100BF039801900846A2
:10515000DD49C86140008861019800900846006CF4
:1051600040F0FF01D84801644FF40010D64988612F
:105170008010C861009848654FF48011D248816161
:10518000C16100980012D049486500BF4FF080719E
:10519000CD48C1610120FDF733F94FF08070CA4955
:1051A00088618010886100BF00BF922002900020BB
:1051B0000390029801904FF48000C8614000C861DC
:1051C00080008861019800900846006C40F0FF0064
:1051D00008644FF4001088618010C8610098486529
:1051E0004FF480108861C86100980112B64841658B
:1051F00000BF1620FDF704F94FF08071B248C1617D
:105200000120FDF7FDF84FF08071AF4881618810F3
:10521000AD49886100BF039801904FF48001AA480E
:10522000C1614800A8498861019800900846006C57
:1052300040F0FF01A44801644FF40010A2498861C6
:105240008110A148C161A049009848654FF48010C1
:10525000886101469C48C161009801129A484165E5
:1052600000BF4FF08071C1610120FDF7C9F84FF018
:105270008070954988618010886100BF00BF9320CD
:10528000029003200390029801904FF480018E4811
:10529000C1614900C16188008B4988610198009013
:1052A0000846006C40F0FF0008644FF4001088616D
:1052B0008010C861009848654FF480108861C8610B
:1052C00000980012486500BF1620FDF799F84FF0CE
:1052D00080707D49C8610120FDF792F84FF0807120
:1052E000794881618910816100BF03980190084667
:1052F0007549C86141007448816101980090724805
:10530000006C40F0FF01704801644FF400106E49DA
:10531000886181106C48C1616B49009848654FF401
:1053200080116948816108466749C8610098001288
:10533000486500BF4FF08070C8610120FDF760F83C
:105340004FF08070604988618010886100BF00BFA5
:10535000952002904FF488700390029801904FF4CA
:1053600080015948C16148005749C86181005648C9
:105370008161019800905448006C40F0FF01524850
:1053800001644FF40011816188104F49C861009891
:1053900048654FF480108861C861009801124A483E
:1053A000416500BF1620FDF72BF84FF0807046498D
:1053B000C8610120FDF724F84FF0807142488161F7
:1053C00088104149886100BF039801904FF4800123
:1053D0003D48C16148003C498861019800900846F9
:1053E000006C40F0FF0008644FF400113648816102
:1053F0008910C1613449009848654FF480113248E2
:10540000816108463049C86100980012486500BFB4
:105410004FF08070C8610120FCF7F2FF4FF0807000
:105420002949886181102848816100BF00BF972009
:105430000290002003900298019008462249C8611A
:1054400041002148C16188001F498861019800908E
:105450000846006C40F0FF0008644FF400108861BB
:105460008010C861009848654FF48010886101463B
:105470001548C161009800121349486500BF162005
:10548000FCF7BEFF4FF080700F49C8610120FCF7A8
:10549000B7FF4FF080700C49886181100A48816124
:1054A00000BF0398019008460749C8614000886121
:1054B000019800900846006C40F0FF01024801642A
:1054C0004FF40011816101E000C009208910C16121
:1054D000FE49009848654FF48011FC488161C16124
:1054E00000980012F949486500BF4FF08071F748F5
:1054F000C1610120FCF784FF4FF08070F34988619F
:105500008010886100BF00BF9820029000200390A7
:10551000029801904FF48001EC48C1614800EB49CA
:10552000C86180008861019800900846006C40F0D6
:10553000FF0008644FF4001088618010C861009873
:1055400048654FF480108861C86100980112DF48F7
:10555000416500BF1620FCF753FF4FF08070DB4918
:10556000C8610120FCF74CFF4FF08070D74988617B
:105570008010886100BF039801904FF48000C861DB
:1055800040008861019800900846006C40F0FF01DF
:10559000CE4801644FF40010CC4988618010C86186
:1055A000009848654FF48011C84881610846C74992
:1055B000C86100980012486500BF4FF08070C86154
:1055C0000120FCF71DFF4FF08070C04988618010FA
:1055D000886100BF00BF0720029040F233100390A3
:1055E000029801904FF48001B848C1614800B74962
:1055F000C86180008861019800900846006C40F006
:10560000FF0008644FF4001088618010C8610098A2
:1056100048654FF4801088610146AC48C16100982C
:105620000012AA49486500BF1620FCF7E9FE4FF0BA
:105630008070A649C8610120FCF7E2FE4FF080703F
:10564000A24988618010886100BF039801904FF4DF
:105650008000C86140008861019800900846006C95
:1056600040F0FF01994801644FF4001097498861A8
:1056700081109648C1619549009848654FF48011A2
:105680009248816108469149C861009800124865B6
:1056900000BF4FF080718D48C1610120FCF7B0FE62
:1056A0004FF08070894988618010886100BF00BF19
:1056B0002020029000200390029801904FF4800077
:1056C000C86141008148C1618800804988610198B2
:1056D00000900846006C40F0FF017C4801644FF4E4
:1056E0000011816188107949C861009848654FF4BC
:1056F000801176488161C16100980112734841654B
:1057000000BF1620FCF77CFE4FF080716F48C1612E
:105710000120FCF775FE4FF080716C4881618810A4
:105720006A49886100BF039801904FF48000C86106
:1057300040008861019800900846006C40F0FF002E
:1057400008644FF4001088618010C86100984865B3
:105750004FF480115D48816108465C49C86100983A
:105760000012486500BF4FF08070C8610120FCF74F
:1057700047FE4FF080715548816188105349886118
:1057800000BF00BF212002900020039002980190EA
:105790004FF48000C8614000C861800088610198B2
:1057A00000900846006C40F0FF0008644FF40010C1
:1057B00088618010C861009848654FF48010886146
:1057C00001464248C161009800124049486500BF47
:1057D0001620FCF715FE4FF080703C49C86101208F
:1057E000FCF70EFE4FF080703849886180108861A8
:1057F00000BF039801904FF48000C86140008861A9
:10580000019800900846006C40F0FF012F480164A9
:105810004FF400102D49886181102C48C1612B493B
:10582000009848654FF4801128488161C161009853
:1058300000122649486500BF4FF080712348C161BE
:105840000120FCF7DDFD4FF0807120488161881058
:105850001E49886100BF00BF00BF3220FDF77CF801
:1058600005B000BD2DE9F0410446194800780B2829
:1058700003D0174800780C287ED10226002500BFEF
:1058800070051249C8614000C8618000886100BF8E
:105890000846006C40F0FF00086430058861801005
:1058A000C86108464665F0048861C86130124865E1
:1058B00000BF1620FCF7A4FDF0050449C8610120D3
:1058C000FCF79EFDF0050149886103E000C0092056
:1058D00010C007208010886100BF00BFC861400071
:1058E000886100BF0846006C40F0FF000864300586
:1058F00088618010C86108464565F0048861C86108
:105900002812486500BFF005C8610120FCF778FD4A
:10591000F005FE4988618010886100BF00BF032543
:10592000002600BFC8614000C8618000886100BFD8
:105930000846006C40F0FF0008644FF400108861D6
:105940008010C861084645654FF480108861C861C1
:105950002812486500BF1620FCF752FD4FF08070FA
:10596000EA49C8610120FCF74BFD4FF08070E74920
:1059700088618010886100E00AE200BF00BFC86152
:105980004000886100BF0846006C40F0FF000864DA
:105990004FF4001088618010C861084646654FF4D6
:1059A00080108861C8613012486500BF4FF0807078
:1059B000C8610120FCF724FD4FF08070D349886155
:1059C0008010886100BF00BF042500BFC86140008F
:1059D000C8618000886100BF0846006C40F0FF008D
:1059E0000864E80488618010C86108464565A80419
:1059F0008861C8612812486500BF1620FCF700FDC9
:105A0000A805C249C8610120FCF7FAFCA805BF49F6
:105A100088618010886100BF00BFC8614000886154
:105A200000BF0846006C40F0FF000864E80488618D
:105A30008010C86108464665A8048861C8613012B4
:105A4000486500BFA805C8610120FCF7D9FCA8057E
:105A5000AE4988618010886100BF00BF0525EF2630
:105A600000BFC8614000C8618000886100BF08466F
:105A7000006C40F0FF0008644FF400108861801053
:105A8000C861084645654FF480108861C8612812D6
:105A9000486500BF1620FCF7B3FC4FF080709B49AF
:105AA000C8610120FCF7ACFC4FF080709749886119
:105AB0008010886100BF00BFC8614000886100BFDE
:105AC0000846006C40F0FF0008644FF40010886145
:105AD0008010C861084646654FF480108861C8612F
